:100000000C942A000C9447000C9447000C94470071
:100010000C9447000C9447000C9447000C94E108A2
:100020000C9447000C9447000C9447000C94470034
:100030000C9447000C9477000C9447000C944700F4
:100040000C9470020C9447000C9447000C944700E9
:100050000C94470011241FBECFE5D8E0DEBFCDBF12
:1000600010E0A0E6B0E0E8ECFBE202C005900D92E3
:10007000AC3AB107D9F717E0ACEAB0E001C01D9285
:10008000A03DB107E1F70E947C140C94E2150C949A
:100090000000529886E880BD83E389B9549A539A48
:1000A00008955D9BFECF8CB908958CB1089520E032
:1000B00004C05D9BFECFECB92F5FFC01E20FF11D88
:1000C000E081EE23B1F70895AC0120E08CB1FA0194
:1000D000E20FF11D8083893011F02F5FF7CF089573
:1000E000579A08959093BD078093BC0708951F9277
:1000F0000F920FB60F9211242F933F934F935F935C
:100100006F937F938F939F93AF93BF93EF93FF93DF
:10011000E091BC07F091BD070995FF91EF91BF9168
:10012000AF919F918F917F916F915F914F913F918F
:100130002F910F900FBE0F901F9018958FB780686A
:100140008FBF08958FB78F778FBF0895382F88306E
:1001500008F07AC0613029F1613038F0623009F47A
:100160003CC0633009F070C053C0413059F42AB329
:1001700081E090E002C0880F991F3A95E2F7282BA2
:100180002ABB60C0442309F05FC02AB381E090E03D
:1001900002C0880F991F3A95E2F7809582238ABBA7
:1001A00051C0413059F427B381E090E002C0880F7C
:1001B000991F3A95E2F7282B27BB44C0442309F046
:1001C00043C027B381E090E002C0880F991F3A95A1
:1001D000E2F78095822387BB35C0413059F424B3C0
:1001E00081E090E002C0880F991F3A95E2F7282B32
:1001F00024BB28C0442341F524B381E090E002C031
:10020000880F991F3A95E2F78095822384BB1AC024
:10021000413059F421B381E090E002C0880F991F6A
:100220003A95E2F7282B21BB0DC0442369F421B392
:1002300081E090E002C0880F991F3A95E2F780951F
:10024000822381BB81E0089580E00895982F862F56
:1002500081508E3F90F0913049F0913028F09230EB
:1002600039F0933051F406C06ABB05C067BB03C0C8
:1002700064BB01C061BB81E0089580E00895382F20
:10028000883008F07AC0613029F1613038F062308E
:1002900009F43CC0633009F070C053C0413059F4D8
:1002A0002BB381E090E002C0880F991F3A95E2F7E6
:1002B000282B2BBB60C0442309F05FC02BB381E027
:1002C00090E002C0880F991F3A95E2F7809582234B
:1002D0008BBB51C0413059F428B381E090E002C09B
:1002E000880F991F3A95E2F7282B28BB44C0442376
:1002F00009F043C028B381E090E002C0880F991F45
:100300003A95E2F78095822388BB35C0413059F495
:1003100025B381E090E002C0880F991F3A95E2F77B
:10032000282B25BB28C0442341F525B381E090E06C
:1003300002C0880F991F3A95E2F78095822385BB0A
:100340001AC0413059F422B381E090E002C0880F16
:10035000991F3A95E2F7282B22BB0DC0442369F47C
:1003600022B381E090E002C0880F991F3A95E2F72E
:100370008095822382BB81E0089580E008958130DA
:1003800051F0813030F0823041F0833049F080E02C
:1003900008956BBB03C068BB01C065BB81E00895D5
:1003A00062BB81E00895282FFA018830E8F44130DB
:1003B0005105D1F0613049F0613028F0623039F0F8
:1003C000633091F406C089B305C086B303C083B31C
:1003D00001C080B390E002C0959587952A95E2F719
:1003E0008170808381E0089580E00895982F8530A2
:1003F00008F047C06130B9F0613030F0623011F17F
:10040000633009F03EC02DC08BB32FE030E002C056
:10041000220F331F9A95E2F7209528232BBB8BB32D
:10042000842B8BBB2CC088B32FE030E002C0220F9E
:10043000331F9A95E2F72095282328BB88B3842B95
:1004400088BB1DC085B32FE030E002C0220F331FF0
:100450009A95E2F72095282325BB85B3842B85BB8D
:100460000EC082B32FE030E002C0220F331F9A95F6
:10047000E2F72095282322BB82B3842B82BB81E044
:10048000089580E008953E9A3F9886B1887F86B9A6
:1004900086B1876086B93D98379A0895339A089552
:1004A00097B1907E97B997B18770892B87B9369AA3
:1004B000349BFECF24B135B1C901089597B1907E28
:1004C00097B997B18770892B87B9369A089524B167
:1004D00035B1C90108959093BF078093BE07089571
:1004E0001F920F920FB60F9211242F933F934F93A9
:1004F0005F936F937F938F939F93AF93BF93EF938C
:10050000FF93E091BE07F091BF070995FF91EF912E
:10051000BF91AF919F918F917F916F915F914F911B
:100520003F912F910F900FBE0F901F9018959F92A3
:10053000AF92BF92CF92DF92EF92FF920F931F93F1
:10054000DF93CF930F92CDB7DEB799249A94EE2420
:10055000FF245E010894A11CB11C22E0C22ECE0C27
:100560008C2D63E040E00E943F018701000F111FC6
:10057000000F111F05561F4F84E0D82E8D2D61E00E
:10058000A5010E94D3018981882359F4F801908044
:1005900005C08D2D61E0A5010E94D30189818823CA
:1005A000C1F3D3940F5F1F4FF8E0DF1639F78C2D9E
:1005B00063E041E00E943F010894E11CF11C84E0EB
:1005C000E816F10451F6892D0F90CF91DF911F911C
:1005D0000F91FF90EF90DF90CF90BF90AF909F90E2
:1005E000089584E061E040E00E94A60085E061E0BB
:1005F00040E00E94A60086E061E040E00E94A60084
:1006000087E061E040E00E94A60082E063E041E014
:100610000E94A60083E063E041E00E94A60084E01F
:1006200063E041E00E94A60085E063E041E00E94B3
:10063000A60084E061E041E00E943F0185E061E0C6
:1006400041E00E943F0186E061E041E00E943F01FD
:1006500087E061E041E00E943F0182E063E041E029
:100660000E943F0183E063E041E00E943F0184E09B
:1006700063E041E00E943F0185E063E041E00E94C9
:100680003F0108951F93182F81E062E041E00E942E
:100690003F011F70110F110F110F83E062E0412F16
:1006A0000E94F60182E062E041E00E943F0180EAA0
:1006B0009FE00197F1F782E062E040E00E943F0195
:1006C0001F9108951F93182F82958F700E944203E7
:1006D000812F0E9442031F910895AF92BF92CF9243
:1006E000DF92EF92FF920F931F93DF93CF93CDB7DB
:1006F000DEB72C970FB6F894DEBF0FBECDBF6B01EF
:100700007C016115710581059105E1F110E05E0143
:100710000894A11CB11CC501810F911D9C878B877A
:10072000C701B6012AE030E040E050E00E94A11588
:10073000EB85FC856083C701B6012AE030E040E02C
:1007400050E00E94A115C901DA016C017D011F5F13
:10075000C114D104E104F104F1F6012F0150E02E9F
:10076000FF24E7FCF094EA0CFB1C09C0F701808130
:10077000805D0E94620301500894E108F10807FFC0
:10078000F5CF03C080E30E9462032C960FB6F89465
:10079000DEBF0FBECDBFCF91DF911F910F91FF90B4
:1007A000EF90DF90CF90BF90AF9008951F93CF93BD
:1007B000DF93EC0110E003C00E9462031F5FFE01A3
:1007C000E10FF11D80818823B9F7DF91CF911F914F
:1007D00008951F93182F81E062E040E00E943F01DE
:1007E0001F70110F110F110F83E062E0412F0E9463
:1007F000F60182E062E041E00E943F0180EA9FE072
:100800000197F1F782E062E040E00E943F011F9112
:1008100008951F93162F813041F4603188F488E0E9
:100820000E94E903812F805809C0823049F4603169
:1008300038F48CE00E94E903812F80540E94E90380
:100840001F9108950F931F9386E062E041E00E949C
:10085000A60085E062E041E00E94A60084E062E03C
:1008600041E00E94A60083E062E041E00E94A60011
:1008700081E062E041E00E94A60082E062E041E0A7
:100880000E94A60080E69AEE0197F1F782E00E94AE
:10089000E90382E00E94E90388E20E94E90300ED97
:1008A00017E0C8010197F1F780E00E94E9038FE0AB
:1008B0000E94E903C8010197F1F780E00E94E90373
:1008C00081E00E94E90380EA9FE00197F1F780E070
:1008D0000E94E90386E00E94E9031F910F910895A9
:1008E0000F931F93182F81E062E041E00E943F01C7
:1008F00082E0612F0E94BF0182E062E041E00E943D
:100900003F0100EA1FE0C8010197F1F782E062E0D1
:1009100040E00E943F01C8010197F1F782E062E0E8
:1009200041E00E943F011F910F910895AF92BF9245
:10093000CF92DF92EF92FF920F931F93DF93CF93AB
:10094000CDB7DEB72C970FB6F894DEBF0FBECDBF84
:100950006B017C016115710581059105E1F110E0E4
:100960005E010894A11CB11CC501810F911D9C87DB
:100970008B87C701B6012AE030E040E050E00E94DA
:10098000A115EB85FC856083C701B6012AE030E044
:1009900040E050E00E94A115C901DA016C017D011F
:1009A0001F5FC114D104E104F104F1F6012F0150DD
:1009B000E02EFF24E7FCF094EA0CFB1C09C0F701D1
:1009C0008081805D0E94700401500894E108F10864
:1009D00007FFF5CF03C080E30E9470042C960FB68A
:1009E000F894DEBF0FBECDBFCF91DF911F910F9165
:1009F000FF90EF90DF90CF90BF90AF9008951F933E
:100A0000CF93DF93EC0110E003C00E9470041F5FDE
:100A1000FE01E10FF11D80818823B9F7DF91CF91AD
:100A20001F9108950F931F93182F81E062E040E01B
:100A30000E943F0182E0612F0E94BF0182E062E0DC
:100A400041E00E943F0100EA1FE0C8010197F1F771
:100A500082E062E040E00E943F01C8010197F1F7A7
:100A600082E062E041E00E943F011F910F910895F2
:100A7000813039F4603168F4862F80580E94120565
:100A80000895823031F4603120F4862F80540E9422
:100A9000120508950F931F9382E06FEF0E942601C5
:100AA00081E062E041E00E94A60082E062E041E075
:100AB0000E94A60080E69AEE0197F1F788E20E9474
:100AC000120500ED17E0C8010197F1F78FE00E94D1
:100AD0001205C8010197F1F781E00E94120580EA32
:100AE0009FE00197F1F786E00E9412051F910F9198
:100AF0000895EF92FF920F931F93FC010580F681FA
:100B0000E02DE680F7808701045F1F4FC8010E9437
:100B1000E0078DED90E0B8010E94820720E0E091AF
:100B2000AC00F091AD00D70156969C91868998173C
:100B300008F021E0822F1F910F91FF90EF90089510
:100B4000FF920F931F93CF93DF9399E0F92E21C06B
:100B5000F894E091E200F091E30006811781C8016A
:100B60000C960E94E0077894E8012296CE010E943C
:100B7000E007F80196898091AE00891710F49093F0
:100B8000AE009F9DC00111248B549F4FBE010E9457
:100B900082078091DD008823D9F60E94300C2091D5
:100BA000AF003091B000821B930B9093B200809302
:100BB000B10089E0F82E53C001969093B400809361
:100BC000B300215030403093B2002093B100892B04
:100BD00009F03EC02091D9003091DA008091DB000D
:100BE0009091DC009093DA008093D9003093DC0080
:100BF0002093DB002DC00580F681E02DC681D781D2
:100C00002091B3003091B4008A819B812817390765
:100C100030F1F8948E010E5F1F4FC8010E94E0076B
:100C20008C899D89892B21F0CE010C960E94E007CA
:100C300078949E898091AE00891710F49093AE004D
:100C40009F9DC00111248B549F4FB8010E948207C1
:100C5000E091D900F091DA008081882361F620913B
:100C6000B1003091B2008091B3009091B400211591
:100C7000310509F0A1CF9093B0008093AF0090911F
:100C8000AE0029E006C0992319F41092AE0032C0DC
:100C90009150929FD0011124AB54BF4F8C91882367
:100CA00091F39093AE001196ED91FC911297028012
:100CB000F381E02D1296FC93EE931197CD010396EC
:100CC000E817F90731F48281938112969C938E93F1
:100CD00011971196ED91FC9112970680F781E02D06
:100CE000F093AD00E093AC0020813181CF016789A2
:100CF000F9010995DF91CF911F910F91FF90089510
:100D00000F931F93CF93DF93EB010091B3001091EA
:100D1000B400080F191F8091AC009091AD000296AD
:100D20000E94E007E091AC00F091AD0013830283D4
:100D30008091B3009091B400BF016E5F7F4F0817A0
:100D4000190728F48091DB009091DC0004C08091A9
:100D5000D9009091DA000E94AB07209749F060918A
:100D6000AC007091AD00645F7F4FCE010E94AB0775
:100D7000DF91CF911F910F910895AF92BF92CF92C3
:100D8000DF92EF92FF920F931F93CF93DF936C014B
:100D9000B62EA42E8AE190E00E944707EC0100974E
:100DA00011F48FEF59C08091AC009091AD00892B68
:100DB00021F5D093AD00C093AC0085EB90E00E948C
:100DC0006E078EEB90E00E946E0727ECE22E20E08B
:100DD000F22EC7010E946E0700ED10E0C8010E94CC
:100DE0006E078DED90E00E946E07F092DA00E092BF
:100DF000D9001093DC000093DB00EB2CBB2011F03A
:100E0000EE24E394198E188EEE8AAF8AFE01C19209
:100E1000D1928F01CF010E947E07CE010C960E94D5
:100E20007E07D987C887DB8BCA8B88E090E08E1954
:100E300091099D878C879E898091AE00891710F457
:100E40009093AE0089E0989FC00111248B549F4F6E
:100E5000B8010E94820781E0DF91CF911F910F912D
:100E6000FF90EF90DF90CF90BF90AF9008950895DE
:100E70001092E7001092E600089520E436E0809199
:100E8000E6009091E700281B390BC90108950F93E4
:100E90001F93CF93DF938C010E942A0C8091E60070
:100EA0009091E7009801280F391F46E0203434075D
:100EB00058F48217930740F4EC01C851DF4F309388
:100EC000E7002093E60002C0C0E0D0E00E94060EDA
:100ED000CE01DF91CF911F910F910895FC019C01EC
:100EE0002D5F3F4F328321838FEF9FEF9483838366
:100EF000368325833087278310820895FC0111866D
:100F000010860895CF93DF93AC01DB01EC012981BA
:100F10003A81F9018281938113969C938E93129763
:100F200089819A8115969C938E9314970280F38100
:100F3000E02D75836483E9017B836A83FA01728300
:100F4000618319965C934E93189780818F5F80839D
:100F5000DF91CF910895CF93DF939C01EB014881FE
:100F600059818FEF4F3F580721F4F901A781B085D0
:100F700010C0D901139604C012960D90BC91A02DFB
:100F80001296ED91FC911397808191814817590732
:100F900098F71296ED91FC911397FB83EA83D58322
:100FA000C483BD83AC831396DC93CE9312973987A9
:100FB0002887F90180818F5F8083DF91CF91089529
:100FC000CF93DF93DC011296ED91FC911397149669
:100FD0008D919C911597958384831496CD91DC9186
:100FE0001597FB83EA831896ED91FC9119978181FF
:100FF00092818A179B0711F4D283C18319961C92A0
:101000001E921897808181508083DF91CF9108953F
:10101000FC0191E1908322E2229383E38293629325
:101020007293129280E88293129282E0829383E01C
:10103000829384E0829385E0829386E0829387E0C6
:10104000829388E0829389E0829380E182939293F5
:1010500082E1829383E1829384E1829385E18293AA
:1010600086E1829387E1829388E1829389E182938A
:1010700080E2829381E28293229383E2829342937D
:10108000529386E2829387E2829388E2829389E296
:10109000829380E3829381E382933197CF01089515
:1010A0001BBC8CE78ABD8BE08EBD89B7806189BF90
:1010B000A0912807B0912907CD91CDBFDD91DEBF6A
:1010C000FF91EF91DF91CF91BF91AF919F918F9160
:1010D0007F916F915F914F913F912F911F910F9150
:1010E000FF90EF90DF90CF90BF90AF909F908F9048
:1010F0007F906F905F904F903F902F901F900F9038
:101100000FBE0F90089581E0089508950F920FB6D5
:10111000F8940F921F9211242F923F924F925F9258
:101120006F927F928F929F92AF92BF92CF92DF92F7
:10113000EF92FF920F931F932F933F934F935F93E1
:101140006F937F938F939F93AF93BF93CF93DF93CF
:10115000EF93FF93A0912807B09129070DB60D9248
:101160000EB60D920E940E0D0E94440CA09128070D
:10117000B0912907CD91CDBFDD91DEBFFF91EF91F9
:10118000DF91CF91BF91AF919F918F917F916F919F
:101190005F914F913F912F911F910F91FF90EF9091
:1011A000DF90CF90BF90AF909F908F907F906F9087
:1011B0005F904F903F902F901F900F900FBE0F9019
:1011C00008950E94860818950F920FB6F8940F9212
:1011D0001F9211242F923F924F925F926F927F92B3
:1011E0008F929F92AF92BF92CF92DF92EF92FF9237
:1011F0000F931F932F933F934F935F936F937F931F
:101200008F939F93AF93BF93CF93DF93EF93FF930E
:10121000A0912807B09129070DB60D920EB60D9238
:101220000E94440CA0912807B0912907CD91CDBF11
:10123000DD91DEBFFF91EF91DF91CF91BF91AF9133
:101240009F918F917F916F915F914F913F912F91DE
:101250001F910F91FF90EF90DF90CF90BF90AF90D4
:101260009F908F907F906F905F904F903F902F90C6
:101270001F900F900FBE0F900895FC010FB6F894C9
:101280000F92828D0F900FBE0895FC01828D0895FC
:10129000FC01828D90E0882309F491E0892F089564
:1012A000FC01928D20E0838D981709F421E0822FB4
:1012B00008950F931F938C01FC01808191810E94FE
:1012C0003707C8010E9437071F910F9108950F93A8
:1012D0001F93CF93DF93EC01FB018A018A8D882352
:1012E00081F14881598141155105A9F08C8D2E81DC
:1012F0003F81280F311D3F832E838A819B812817D0
:10130000390710F05F834E834C8D6E817F81CF0152
:1013100050E00E94C3158A8D81508A8F8D8D8F3F3A
:1013200069F48885882361F0CE0108960E94CF0C6D
:10133000882331F081E0F801808303C08F5F8D8FB7
:1013400081E0DF91CF911F910F910895CF93DF93AB
:10135000EC01842F4C8D4423A1F18823B1F48C81BE
:101360009D8150E00E94C3158C8D2C813D81280FFA
:10137000311D3D832C838A819B812817390708F111
:10138000888199819D838C831CC08E819F8150E0D0
:101390000E94C3158C8D90E044275527481B590B9C
:1013A0008E819F81840F951F9F838E832881398131
:1013B0008217930730F48A819B81840F951F9F8346
:1013C0008E838A8D8F5F8A8FDF91CF9108950F93DF
:1013D0001F93CF93DF93EC018A019A8D8B8D981721
:1013E00010F080E017C0CE01422F0E94A6098E8D1A
:1013F0008F3F69F48989882361F0CE0141960E946C
:10140000CF0C882331F081E0F801808303C08F5F27
:101410008E8F81E0DF91CF911F910F9108950F93EF
:101420001F93CF93DF93EC010FB6F8940F928C01CA
:101430000F5E1F4F0DC08989882369F0C8010E9483
:10144000CF0C882311F00E94CB0C8E8D81508E8F93
:101450008E8D181684F38FEF8E8F0F900FBE0FB600
:10146000F8940F928E01085F1F4F0DC08885882366
:1014700069F0C8010E94CF0C882311F00E94CB0CA8
:101480008D8D81508D8F8D8D181684F38FEF8D8FFC
:101490000F900FBEDF91CF911F910F9108957F9212
:1014A0008F929F92AF92BF92CF92DF92EF92FF9274
:1014B0000F931F93DF93CF9300D000D00F92CDB73F
:1014C000DEB78C01962E872E5D834C83722E91E1C0
:1014D000C92ED12CC00ED11E20E07E010894E11C43
:1014E000F11C84E0A82EB12CAC0EBD1E01C021E081
:1014F0000FB6F8940F92F801828D882309F43EC04C
:10150000E680F7804081518141155105B1F0848D0D
:101510009701280F311D37832683828193812817F5
:10152000390710F057834683F801448D668177812F
:10153000892D982D50E00E94C315772071F4F80191
:10154000828D8150828F80858823A1F0C801089602
:101550000E94CF0C813071F40BC0F801F782E68253
:101560008189882339F0C6010E94CF0C882311F0AD
:101570000E94E4080F900FBE81E04AC08C819D81DB
:10158000892B19F40F900FBE42C0222319F4C70112
:101590000E94860C0F900FBE0E942A0C0FB6F89482
:1015A0000F92F801858D8F3F09F4158EF801868D15
:1015B0008F3F09F4168E0F900FBEC701B5010E9430
:1015C000910C8823F9F40FB6F8940F92F801828DEC
:1015D0000F900FBE882381F46C817D81C6010E942B
:1015E000E90DC8010E940F0A0E94060E882309F027
:1015F0007ECF0E94E4087BCFC8010E940F0A0E94A0
:10160000060E75CFC8010E940F0A0E94060E80E0E8
:101610000F900F900F900F900F90CF91DF911F912F
:101620000F91FF90EF90DF90CF90BF90AF909F9081
:101630008F907F9008957F928F929F92AF92BF92EA
:10164000CF92DF92EF92FF920F931F93DF93CF938E
:1016500000D000D00F92CDB7DEB78C016B015D8357
:101660004C83722E48E0E42EF12CE80EF91E20E0A7
:101670005E010894A11CB11C34E0832E912C8C0EC9
:101680009D1E01C021E00FB6F8940F92F801928DD3
:10169000838D9817A8F4C801B601472D0E94A609AA
:1016A000F8018189882341F0C80141960E94CF0C3E
:1016B000813011F40E94E4080F900FBE81E04CC00D
:1016C0008C819D81892B19F40F900FBE44C0222379
:1016D00019F4C5010E94860C0F900FBE0E942A0CBF
:1016E0000FB6F8940F92F801858D8F3F09F4158E8F
:1016F000F801868D8F3F09F4168E0F900FBEC5013D
:10170000B4010E94910C882309F50FB6F8940F924A
:10171000F801928D0F900FBEF801838D981781F418
:101720006C817D81C7010E94E90DC8010E940F0AEA
:101730000E94060E882309F0A5CF0E94E408A2CFDC
:10174000C8010E940F0A0E94060E9CCFC8010E9489
:101750000F0A0E94060E80E00F900F900F900F90DE
:101760000F90CF91DF911F910F91FF90EF90DF903D
:10177000CF90BF90AF909F908F907F900895AF9241
:10178000BF92CF92DF92EF92FF920F931F93CF936E
:10179000DF93B82EA62E882309F442C08FE190E093
:1017A0000E944707EC010097D9F1EB2CFF24CA2CCB
:1017B000DD24CE9C8001CF9C100DDE9C100D1124E9
:1017C000C80101960E9447079C019983888300976E
:1017D00021F1080F191F1B830A831A8E9D838C83A6
:1017E0000894E108F108EC9CC001ED9C900DFC9C74
:1017F000900D1124280F391F3F832E83BB8EAC8E92
:101800008FEF8D8F8E8FCE0108960E946E07CE01CE
:1018100041960E946E079E0105C0CE010E943707C7
:1018200020E030E0C901DF91CF911F910F91FF902F
:10183000EF90DF90CF90BF90AF9008951F93162F39
:1018400060E00E94BF0BFC01009709F0128FCF01EE
:101850001F91089580912E078F5F80932E07089522
:101860000FB6F8940F9220912C0730912D070F900E
:101870000FBEC901089520912C0730912D07C90191
:10188000089580913107089580912E07882351F0A3
:1018900081E080932A07089580912F0781508093DB
:1018A0002F0701C099E0E0912F07E99FF001112473
:1018B000EA5CF84F8081882379F390912F0789E0C3
:1018C000989FD0011124AA5CB84F1196ED91FC911C
:1018D00012970280F381E02D1296FC93EE931197FC
:1018E000CD010396E817F90731F4828193811296AE
:1018F0009C938E9311971196ED91FC91129786818E
:10190000978190932907809328070895FC0180917F
:101910002B07808380912C0790912D0792838183E0
:101920000895FC01DB010FB6F8940F9290912B07FC
:101930008081981749F020912C0730912D078181E3
:1019400092812817390718F580912C0790912D075F
:10195000218132814D915C911197821B930B8417E9
:101960009507A8F480912C0790912D07281B390B1F
:10197000240F351F2D933C9380912B0780838091FA
:101980002C0790912D079283818380E001C081E034
:101990000F900FBE089581E080932A0708950F935A
:1019A0001F93CF93DF93FC010580F681E02D068124
:1019B0001781E8012C96CE010E94E00780912E0746
:1019C0008823A9F4E8012296CE010E94E007D801FD
:1019D00056969C9180912F07891710F490932F07AA
:1019E00089E0989FC00111248A5C984F02C084E965
:1019F00097E0BE010E948207E0912807F091290735
:101A000020E0D80156969C918689981708F021E02D
:101A1000822FDF91CF911F910F910895FF920F9325
:101A20001F93CF93DF9380912E07882309F08FC0F7
:101A300080912C0790912D07019690932D0780930C
:101A40002C0780912C0790912D07892B79F52091F7
:101A5000900730919107809192079091930790930E
:101A6000910780939007309393072093920780917A
:101A70002B078F5F80932B07E0919007F0919107E0
:101A80008081882319F48FEF9FEF0CC0E0919007BD
:101A9000F09191070580F681E02D0680F781E02D19
:101AA00082819381909391008093900020912C07E4
:101AB00030912D078091900090919100281739075F
:101AC00008F44AC089E0F82EE0919007F091910760
:101AD0008081882339F48FEF9FEF9093910080935A
:101AE00090003AC0E0919007F09191070580F6814F
:101AF000E02DC681D7812A813B8180912C0790916E
:101B00002D078217930728F43093910020939000BB
:101B100023C08E010E5F1F4FC8010E94E0078C8911
:101B20009D89892B21F0CE010C960E94E0079E89A9
:101B300080912F07891710F490932F079F9DC00164
:101B400011248A5C984FB8010E948207BDCF809112
:101B500030078F5F80933007DF91CF911F910F91F6
:101B6000FF900895CF93DF93EC01E0912807F09167
:101B700029079383828380912C0790912D07C817A2
:101B8000D90768F480919207909193076091280794
:101B9000709129076E5F7F4F0E94AB0717C080913D
:101BA00090079091910760912807709129076E5FC7
:101BB0007F4F0E94AB078091900090919100C817D1
:101BC000D90720F4D0939100C0939000DF91CF917A
:101BD00008950F931F938B01609128077091290737
:101BE000645F7F4F0E94AB0780912807909129077F
:101BF00002960E94E00780912C0790912D07800F9C
:101C0000911F0E94B20D1F910F910895CF92DF9204
:101C1000FF920F931F93DF93CF930F92CDB7DEB751
:101C20000FB6F8940F9280912E07815080932E0763
:101C300080912E07882309F058C0809131078823AE
:101C400009F453C0198299E0F92E2DC0E09199074B
:101C5000F0919A07C680D780C6010C960E94E007D3
:101C600086010E5F1F4FC8010E94E007D6015696FD
:101C70009C9180912F07891710F490932F079F9DB7
:101C8000C00111248A5C984FB8010E948207E0913C
:101C90002807F0912907D60156969C9186899817B6
:101CA00010F0B1E0B98380919407882379F6809190
:101CB0003007882341F40CC00E940E0D809130073C
:101CC000815080933007809130078823A9F707C09F
:101CD000E981E13021F080912A07813031F41092BE
:101CE0002A070E94E40881E001C080E00F900FBE47
:101CF0000F90CF91DF911F910F91FF90DF90CF90C8
:101D000008950F931F93CF93DF93EC010097C9F0D1
:101D100080912E078F5F80932E0700912C071091E2
:101D20002D07809128079091290702960E94E007CD
:101D3000CE01800F911F0E94B20D0E94060E8823D3
:101D400011F40E94E408DF91CF911F910F91089543
:101D5000CF93DF93FC01EB0180912E078F5F80937F
:101D60002E0720813181C20FD31F80912C079091C3
:101D70002D078217930728F4C217D30728F020E015
:101D80000CC0C217D30740F080912C0790912D070B
:101D900020E08C179D0708F421E0D183C083222323
:101DA00051F0809128079091290702960E94E00740
:101DB000CE010E94B20D0E94060E882311F40E94EB
:101DC000E408DF91CF910895EF92FF920F931F9354
:101DD000CF93DF938C010FB6F8940F928091280770
:101DE000909129070817190719F400E010E003C0C3
:101DF0000115110529F4C0912807D091290701C0C8
:101E0000E80122E0E22EF12CEC0EFD1EC7010E943B
:101E1000E0078C899D89892B21F0CE010C960E94C8
:101E2000E0078DE997E0B7010E94820780913307B0
:101E30008F5F80933307809134078F5F80933407DF
:101E40000F900FBE80913207882321F0012B11F4EF
:101E50000E94E408DF91CF911F910F91FF90EF90C6
:101E60000895F894109232070E94850808950F9300
:101E70001F93809133078823E1F380912E078F5FB2
:101E800080932E0710919D070E94060E112389F35F
:101E90000FB6F8940F92E091A207F091A307068184
:101EA0001781C80102960E94E00780913107815096
:101EB00080933107809133078150809333070F90CF
:101EC0000FBEF8018789908D0E943707C8010E94D4
:101ED0003707CFCF2F923F924F925F927F928F9290
:101EE0009F92AF92BF92CF92DF92EF92FF920F93A9
:101EF0001F93CF93DF931C014B015A012901702ED0
:101F0000E60181E290E00E9447076C01009771F0C2
:101F1000209721F4C5010E944707EC01F601D08FFC
:101F2000C78B209729F4C6010E9437078FEFBFC0E7
:101F3000CE0165EA70E0A5010E94CC150894A108C5
:101F4000B108F601C789D08DCA0DDB1DC6014996BF
:101F5000B40148E050E00E94D315F60110A2072D0D
:101F6000F7E0F71508F407E0F601068B42E0A42E2F
:101F7000B12CAC0CBD1CC5010E947E07C6010C969D
:101F80000E947E07F601D186C08688E090E0801B23
:101F9000910995878487D38AC28ACE01B101A201B3
:101FA0000E940808F60191838083E114F10419F07E
:101FB000F701D182C0820FB6F8940F928091310759
:101FC0008F5F809331078091280790912907892B93
:101FD00079F5D0922907C092280780913107813086
:101FE000B1F5C6E3D7E0CE010E946E072996F7E06F
:101FF000CE37DF07C1F73EE7E32E37E0F32EC70108
:102000000E946E0707E817E0C8010E946E0784E986
:1020100097E00E946E078DE997E00E946E07F092AC
:102020009107E092900710939307009392070FC0D7
:1020300080913207882359F4E0912807F09129070D
:102040008689781620F0D0922907C0922807F601D9
:10205000968980913507891710F490933507809100
:1020600034078F5F80933407F601968980912F079C
:10207000891710F490932F07F601868929E0829F33
:10208000C00111248A5C984FB5010E9482070F900D
:102090000FBE80913207882349F0E0912807F09124
:1020A00029078689871510F40E94E40881E0DF91F2
:1020B000CF911F910F91FF90EF90DF90CF90BF9045
:1020C000AF909F908F907F905F904F903F902F9018
:1020D0000895AF92BF92CF92DF92EF92FF920F934B
:1020E00087E39FE060E670E044E650E020E030E007
:1020F00000E0EE24FF24CC24DD24AA24BB240E948B
:102100006A0F813049F4F8948093320710922D07BA
:1021100010922C070E9450080F91FF90EF90DF90D3
:10212000CF90BF90AF9008958091CC079091CD074C
:1021300060E070E040E050E020E00E941B0B08955A
:102140008091C5079091C60760E070E04AE050E0DA
:1021500020E00E944F0A813009F067C08091C207D9
:102160009091C30761EB77E040E050E020E00E94EF
:102170004F0A8091C2079091C3076FEA77E040E071
:1021800050E020E00E944F0A8091C2079091C3075F
:102190006DEA77E040E050E020E00E944F0A809135
:1021A000C0079091C1076CEA77E040E050E020E082
:1021B0000E944F0A8091C0079091C1076BEA77E0B7
:1021C00040E050E020E00E944F0A8091C0079091CB
:1021D000C1076AEA77E040E050E020E00E944F0A41
:1021E0008091A7078130B1F48091CA079091CB0705
:1021F00069EA77E045E050E020E00E944F0A8091D4
:10220000CA079091CB0768EA77E045E050E020E00C
:102210000E944F0A8091C5079091C60760E070E068
:1022200040E050E020E00E941B0B8091A70788232C
:1022300009F0B0C081E062E00E9409048FE20E94D0
:10224000620381E065E00E9409048FE20E9462035C
:1022500082E062E00E9409048AE30E94620382E055
:1022600065E00E9409048AE30E94620381E060E065
:102270000E9409048091AD079091AE076AE070E07A
:102280000E948D15862F805D0E9462038091AD07AC
:102290009091AE076AE070E00E948D15805D0E940B
:1022A000620381E063E00E9409048091AF0790918E
:1022B000B0076AE070E00E948D15862F805D0E9455
:1022C00062038091AF079091B0076AE070E00E94CE
:1022D0008D15805D0E94620381E066E00E94090422
:1022E0006091B1077091B20780E090E00E946D03A9
:1022F00081E06AE00E94090485E690E00E94D6032E
:1023000082E060E00E9409048091AC076AE00E94CC
:102310008115805D0E9462038091AC076AE00E9493
:102320008115892F805D0E94620382E063E00E9434
:1023300009048091AB076AE00E948115805D0E94CC
:1023400062038091AB076AE00E948115892F805D4E
:102350000E94620382E066E00E9409048091AA075D
:102360006AE00E948115805D0E9462038091AA0745
:102370006AE00E948115892F805D0E94620381E0DE
:1023800060E00E94090482E068E00E94090485E69A
:1023900090E042C0813009F041C060E00E94090431
:1023A0008DE690E00E94D60381E067E00E94090478
:1023B0008091A9076AE00E948115805D0E946203F6
:1023C0008091A9076AE00E948115892F805D0E9493
:1023D000620383E790E00E94D60382E060E00E94FF
:1023E000090488E790E00E94D60382E067E00E943B
:1023F00009048091A8076AE00E948115805D0E940F
:1024000062038091A8076AE00E948115892F805D90
:102410000E9462038FE790E00E94D60384E690E07A
:102420000E94810E8DCE81E08093B3078091B90721
:102430008823D1F580919A008F5F80939A008C3326
:1024400098F110929A00809199008F5F8093990083
:102450008C3350F110929900809198008F5F809397
:102460009800883108F11092980080919600909120
:102470009700019690939700809396004F97A0F055
:10248000809194009091950001969093950080938F
:1024900094000D9748F080919200909193000196DE
:1024A000909393008093920088EE93E00E94810EB7
:1024B000BDCFCF93DF93C1E0D0E08091B9078130E9
:1024C00009F066C08091BA07813009F061C080913F
:1024D000BB07823051F1833030F4882361F08130C2
:1024E00009F054C012C08430D1F1843070F18530CD
:1024F00009F04CC03EC080919200909193000196EB
:10250000909393008093920041C0809194009091A9
:102510009500019690939500809394000D97B0F1EB
:10252000D0939500C093940031C080919600909113
:102530009700019690939700809396004F9730F103
:10254000D0939700C093960021C0809198008F5F30
:10255000809398008831D0F01092980017C0809135
:1025600099008F5F809399008C3381F410929900C9
:102570000DC080919A008F5F80939A008C3311F484
:1025800010929A001092B9071092BB071092BA07E6
:1025900084E690E00E94810E90CF80E00E945E026F
:1025A0008091CC079091CD0760E070E045E050E06D
:1025B00020E00E944F0A8130C1F40E94670290938C
:1025C000B5078093B407A0E0B0E0BC01CD0128E8D6
:1025D00033E140E050E00E94621520E03CE040E042
:1025E00050E00E94A1152093C4078AE090E00E9469
:1025F000810ED3CF81E00E945E028091CC07909142
:10260000CD0760E070E045E050E020E00E944F0A16
:102610008130C1F40E9467029093B7078093B60798
:10262000A0E0B0E0BC01CD0128E833E140E050E09B
:102630000E94621520E038E240E050E00E94A115BF
:102640002093C7078AE090E00E94810ED3CF8F923B
:102650009F92AF92BF92CF92DF92EF92FF921F9321
:10266000DF93CF9300D000D0CDB7DEB781E0898370
:102670008A838B838C834E010894811C911C11E00A
:1026800022E0A22EB12CAC0EBD1E93E0C92ED12C9F
:10269000CC0EDD1E84E0E82EF12CEC0EFD1E82E057
:1026A00063E0A4010E94D3018981882331F410934F
:1026B000B90761E041E00E943F0183E063E0A501CA
:1026C0000E94D3018A81882311F41093BA0784E011
:1026D00063E0A6010E94D3018B81882349F4109204
:1026E000C9071092C8078091BB078F5F8093BB0713
:1026F00085E063E0A7010E94D3018C81882359F40F
:102700008091A707882319F41093A70704C081308C
:1027100011F41092A70784E690E00E94810EBFCFCB
:10272000FF920F931F93FF24F39402E08091C5075B
:102730009091C60760E070E04AE050E020E00E941F
:102740004F0A182F8091B807882309F04FC0809155
:10275000C2079091C30762E970E040E050E020E0DA
:102760000E941B0B8091C2079091C30764E970E03F
:1027700040E050E020E00E941B0B8091C207909146
:10278000C30766E970E040E050E020E00E941B0BC8
:102790008091C0079091C10768E970E040E050E087
:1027A00020E00E941B0B8091C0079091C10769E94E
:1027B00070E040E050E020E00E941B0B8091C007D9
:1027C0009091C1076AE970E040E050E020E00E948B
:1027D0001B0B8091C5079091C60760E070E040E058
:1027E00050E020E00E941B0BF092B807113009F076
:1027F0007EC08091A707882309F04AC08091B30763
:10280000813009F074C08091C2079091C30762E9DA
:1028100070E043E050E020E00E941B0B8091C20773
:102820009091C30764E970E043E050E020E00E942B
:102830001B0B8091C2079091C30766E970E043E0EB
:1028400050E020E00E941B0B8091C0079091C107CF
:1028500068E970E043E050E020E00E941B0B8091AB
:10286000C0079091C10769E970E043E050E020E0C3
:102870000E941B0B8091C0079091C1076AE970E02C
:1028800043E050E020E00E941B0B1093B80724C0E7
:10289000813069F58091B807813041F480E00E9471
:1028A000E90381E00E94E9030093B8078091CA0719
:1028B0009091CB0764EC77E043E050E020E00E9489
:1028C0001B0B8091CA079091CB0767EC77E043E040
:1028D00050E020E00E941B0B8091C5079091C60735
:1028E00060E070E040E050E020E00E941B0B80E5DB
:1028F00090E00E94810E1ACFAF92BF92CF92DF92EA
:10290000EF92FF920F930E94220482E063E040E086
:102910000E94A60083E063E040E00E94A60084E0FD
:1029200063E040E00E94A60085E063E040E00E9492
:10293000A60082E063E041E00E943F0183E063E0A3
:1029400041E00E943F0184E063E041E00E943F01DA
:1029500085E063E041E00E943F0181E061E041E009
:102960000E94A60080E061E041E00E94A60080E0B5
:1029700062E041E00E94A60085E890E00E94D60354
:1029800080E197E228EC30E0F9013197F1F7019707
:10299000D9F780E00E94E90381E00E94E90384E91D
:1029A00090E10E946B020E944E020E94430280E06E
:1029B0000E945E020E949E0081E060E00E941E0C68
:1029C0009093CD078093CC0781E060E00E94BF0B1D
:1029D0009093C6078093C507009739F060E070E0D8
:1029E00040E050E020E00E941B0B80E993E160E0B2
:1029F00070E044E650E020E030E000E0EE24FF2408
:102A0000CC24DD24AA24BB240E946A0F83E192E136
:102A100060E070E044E650E020E030E00E946A0FA1
:102A200080EA90E160E070E04CE251E020E030E0CC
:102A300001E00E946A0F87E293E160E070E044E603
:102A400050E020E030E002E00E946A0F89E592E168
:102A500060E070E048E750E020E030E003E00E94F2
:102A60006A0F8AEF92E160E070E046E450E020E017
:102A700030E005E00E946A0F8DEC92E160E070E0CA
:102A800046E450E020E030E006E00E946A0F83E078
:102A900062E00E94BF0B9093C3078093C20783E05C
:102AA00061E00E94BF0B9093C1078093C00783E051
:102AB00061E00E94BF0B9093CB078093CA070E94EE
:102AC0006910FFCF629FD001739FF001829FE00DDC
:102AD000F11D649FE00DF11D929FF00D839FF00D9D
:102AE000749FF00D659FF00D9927729FB00DE11D49
:102AF000F91F639FB00DE11DF91FBD01CF01112426
:102B00000895991B79E004C0991F961708F0961B49
:102B1000881F7A95C9F780950895AA1BBB1B51E1C0
:102B200007C0AA1FBB1FA617B70710F0A61BB70B3D
:102B3000881F991F5A95A9F780959095BC01CD01E2
:102B40000895A1E21A2EAA1BBB1BFD010DC0AA1FEE
:102B5000BB1FEE1FFF1FA217B307E407F50720F006
:102B6000A21BB30BE40BF50B661F771F881F991F81
:102B70001A9469F760957095809590959B01AC01CA
:102B8000BD01CF010895FB01DC0102C001900D924F
:102B900041505040D8F70895DC0101C06D93415079
:102BA0005040E0F70895FB01DC014150504048F0EF
:102BB00001900D920020C9F701C01D924150504074
:082BC000E0F70895F894FFCF3F
:102BC80049444C4500202020202020200054656DD9
:102BD800703D00432020200048726174653D00204C
:102BE80042706D200057454C434F4D452E2E2E0008
:102BF800FFFFE50708000B00173B32373431433835
:0C2C08003532303936333D2F2A2D2B0099
:00000001FF
